:020000040000fa
:100000000200d2021003000000000002100b0000ea
:10001000000000021013000000000002101b00008e
:10002000000000021023000000000002102b00005e
:10003000000000021033000000000002103b00002e
:10004000000000021043000000000002104b0000fe
:10005000000000021053000000000002105b0000ce
:10006000000000021063000000000002106b00009e
:10007000000000021073000000000002107b00006e
:10008000000000021083000000000002108b00003e
:10009000000000020882e4900003784a7909800297
:1000a000f0a3d8fcd9fa7a4c7b089000e478077961
:1000b000018015e493a3ad82ae838a828b83f0a383
:1000c000aa82ab838d828e83d8e9d9e712043d12d0
:1000d00008a175d00075813f751e8075931e5392df
:1000e000fe0200960010000800006016080808c60e
:1000f000c313c618c613c618c613c618c613c6d56a
:10010000e0ea227009080808226016181818c6c309
:1001100033c608c633c608c633c608c633c6d5e0dc
:10012000ea22e026f008a3e036f008a3e036f00863
:10013000a3e036f022e0f608a3e0f608a3e0f60814
:10014000a3e0f622e6f008a3e6f008a3e6f008a391
:10015000e6f022cac0e0e6f30908dafad0e0fa22b3
:10016000600c08c6c313c618c613c6d5e0f42270c7
:100170000422600d18c6c333c608c633c6d5e0f4e2
:100180001822e4735392fed083d082251ef8c51e38
:10019000c39824fbcef208e520f208e9c0e0790814
:1001a000e709f208defad0e0f9eff208d0e0fed07d
:1001b000e0f208eef208e473a81ee2fe08e208f599
:1001c00020e9c0e07908e208f709dffae208ffd089
:1001d000e0f9e208c0e0e208c0e0881e5392fe2287
:1001e000e584f208e585f222e208f584e2f585224d
:1001f00074028000c9c0e0e51ec399f51ec9120152
:1002000053d0e0f92275bc0075bc005392fe2280e9
:100210000f8a828b835392fee0f5bda3aa82ab8343
:10022000ecf8edf9e824ff1ce934fffde84970e142
:100230005392fe22e5bdf9e5bcfae9fb5392fe229a
:100240007400f5d374032408f5d25392fe2275c9c5
:100250000bc2af80fe74fa120184e9fec39402401f
:1002600029a2afe433f8c2af906270e0a2e740f891
:10027000eec333906272f0906270e0d2e0f0e0a2e0
:10028000e740fbe8a2e092af800312024e7f01023a
:1002900001b874f9120184e9fe8a088b097409789f
:1002a00008120160e508c39402404ca2afe433ff9a
:1002b000c2afed900003f0eca3f0a37462f0a3745e
:1002c00073f0a3e4f0eea3f0a37412f0a37442f071
:1002d000eb906272f0ea906271f07400f5d575d41b
:1002e0000375d601906270e0d2e1f0e0a2e740fb36
:1002f000efa2e092af800312024e7f020201b853d8
:1003000092fe906276e0547064307004780380024c
:10031000780775c6807480659e70fa906270740864
:10032000f088c790ff0ae0f5f190ff02e0f586a3a0
:10033000e0f5c4a3e0f5c5a3e0f5c2a3e0f5f8a39a
:10034000e0f5fba3e0f5fca3e0f5faa2fe500ee514
:10035000f1a2e14008e5ff543f4440f5ff90ff0b58
:10036000e0f5f3a3e0f5f4a3e0f5f522c008c00939
:100370008908750900740b780812016ffae50944c1
:1003800080fbd009d0085392fe2274f712018490aa
:100390009093e064bf7063e5c7f50812020575c766
:1003a000007c937d007a007b9012020f7c5d7d07bc
:1003b0007aa37b9012020f909094e014f5097f00cd
:1003c000801674032ffef912036ceec4540ff5c7a8
:1003d0007c007d0812020f0fefc3950940e48508e9
:1003e000c71202348a088b09a808a909909095e0e1
:1003f000687003a3e069703e8038e5c7f5087fa503
:100400007e02eef912036c8a828b83eec4540ff5e0
:10041000c778007908e02fffa3e824ff18e934ff2c
:10042000f9e84970f00eeec3943040d68508c7ef66
:1004300070047901800279007f040201b85392feb2
:10044000900001e090001bf0900002e090001cf092
:10045000e59d54186410700890001be0a2e0403d38
:10046000e5c7f8790075c700909000e0640270015c
:100470000988c7e9a2e0502512038ae9601f9000ad
:10048000017403f090001ce0900002f005929008c7
:100490004ce0f582a3e0f58305921201821202ff7f
:1004a000900001e4f012024012064080fe740759e9
:1004b000f87401b800028004c333d8fcf8741859ea
:1004c000600a24f8600b24f8600c800de8428080fc
:1004d00008e842908003e842a05392fe2274075934
:1004e000f87401b800028004c333d8fcf4f874181f
:1004f00059600a24f8600b24f8600c800de85280e3
:100500008008e852908003e852a05392fe227407bc
:1005100059f87401b800028004c333d8fcf8741889
:1005200059600a24f8600b24f8600c800de842fd45
:100530008008e842fe8003e842ff5392fe227903de
:100540005392fe906276e0a2e65002790722e9f823
:100550005392fe900845e0700c88c1e586a2e04009
:10056000fae5c1f92288f9a2f840fce5f9f922740c
:10057000f7120184151e151ea81e1201e075841db8
:10058000758500900846e060167f107e8079001225
:10059000054ee90592f0a3def41fef604e80ec906b
:1005a00008477808120135740f78081200eae50848
:1005b000f5c79008477808120135e508f582e50986
:1005c0004480f583791078805392fee00592f0051f
:1005d00092a30592a3d8f1d9ed059290084e780820
:1005e0001201359008477808120122a81e1201e86e
:1005f000051e051e7f040201b874f71201849008dd
:1006000046e0601e900843e0f91204dd790312050c
:100610004e790012054e790012054e790012054ef2
:10062000801c90084be0f508e4f509f50af50b7419
:100630000b7808120103900847780812014480b42f
:1006400074f5120184151e151ea81e1201e07e000d
:100650007f0012053ee9f5c790ff28e0900843f0bf
:1006600090ff29e0900844f090ff27e0900845f0c3
:1006700090ff2ae0a2e0e433900846f090f7e4e02f
:1006800090084bf0f509900846e0a2e05041900830
:1006900044e0f91204dd900844e0f912050e9008d8
:1006a00044e0f91204ad78fee595f9e5956960043a
:1006b000e595f918e870f4900843e0f91204ad905c
:1006c0000843e0f912050e900843e0f91204ad1258
:1006d00005f912056f1202057cfe7d077a1f7b006b
:1006e00012020f1202348a0a8b0b750c268e0d78bb
:1006f0000c1201f07c1d7d007a1d7b081208a505f7
:100700001e051ea80b90081ee068600302083990c1
:10071000081de0650a6003020839120205900846c8
:10072000e0701374075509f87401b800028004c31f
:1007300033d8fc1208608e0812084cc0e0740755cc
:1007400008f8d0e0b800028004c313d8fca2e0503f
:1007500027900846e0701374075509f87401b80033
:10076000028004c333d8fc12086012056f7c007d40
:10077000087a1d7b0012020f0508e508c39480402b
:10078000b7900846e06008900843e0f91204ad1203
:1007900002348a0a8b0ba80b900820e068600302e1
:1007a000083990081fe0650a60030208398e08e5e1
:1007b0000812086cc0e074075508f8d0e0b80002d1
:1007c0008004c313d8fca2e05005a9081202550505
:1007d00008e508c3948040d71205f912056f8e080a
:1007e00012084cc0e074075508f8d0e0b800028049
:1007f00004c313d8fca2e0503512056f75841d7533
:1008000085007509007980ac84ad85eefaeffb12a6
:100810000292ee2420fee43fffe5842480f584501c
:100820000205850509e509c39410500480d70f0f10
:100830000508e508c3948040a7900846e06008904a
:100840000843e0f91204ad75c90880fee5081313ea
:1008500013541ff8742328f582e43408f583e0224a
:10086000f4fae50912086c5af0050922131313541f
:100870001ff8743328f582e43408f583e02253929c
:10088000fe2274fa120184151e151eeafeebffa863
:100890001eeef208eff2aa1eab93790112087e80d9
:1008a000ee12009322c084c0858c848d858a828b51
:1008b00083a81ee2fc08e28012439201e00592f058
:1008c000a30592a3ec24ff1ced34fffdec4d70e971
:1008d000d085d0845392fe22ffffffffffffffff72
:1008e000ffffffffffffffffffffffffffffffff18
:1008f000ffffffffffffffffffffffffffffffff08
:10090000fffffffffffffffffffffffffffffffff7
:10091000ffffffffffffffffffffffffffffffffe7
:100f000012010002000000205824feff0000010230
:100f1000030109021b0001010480250904000000ef
:100f2000fe01020409210d03e84000010104030948
:100f300004120342006c00750065006700690067d9
:100f400000610016034c006f007700200045006e22
:100f50000065007200670079000a03310032003337
:100f6000003400080344004600550000ffffffff67
:100f7000ffffffffffffffffffffffffffffffff81
:100f8000ffffffffffffffffffffffffffffffff71
:100f9000ffffffffffffffffffffffffffffffff61
:100fa000ffffffffffffffffffffffffffffffff51
:100fb000ffffffffffffffffffffffffffffffff41
:100fc000ffffffffffffffffffffffffffffffff31
:100fd000ffffffffffffffffffffffffffffffff21
:100fe000ffffffffffffffffffffffffffffffff11
:100ff000ffffffffffffffffffffffffffffffff01
:101000000211080232caffffffffff023f3bffff52
:10101000ffffff023feaffffffffff0240a1ffffcc
:10102000ffffff02272cffffffffff023cfeffff39
:10103000ffffff024183ffffffffff024041ffff71
:10104000ffffff023fc5ffffffffffffffffffffa7
:10105000ffffff0232b0ffffffffffffffffffffb9
:10106000ffffffffffffffffffffff023e75ffffd8
:10107000ffffff024113ffffffffff023ef8ffffec
:10108000ffffff0232d5ffffffffffffffffffff64
:10109000ffffffbf3268fb000000000000000000ff
:1010a0000000747582f975837f7400121123e4794e
:1010b000347802b800028004f709d8fce4900303f6
:1010c000784779078002f0a3d8fcd9fa7a497b09de
:1010d000901144788279028015e493a3ad82ae83a7
:1010e0008a828b83f0a3aa82ab838d828e83d8e918
:1010f000d9e775824675838d74031211237582eecc
:10110000758398740312112375d00075813f753172
:1011100000753203753303759f007593005392fe7b
:101120000210aec09ff59fe473d09f225392fed071
:1011300083d082c09fe493c0e0740193c0e0740246
:1011400093f59f220300000201020300000f00c379
:10115000a88ee8b19dcf7f5eb98b9f41efb055f46b
:1011600001fa00960064004b0032001e001400d605
:10117000be898e000106021213151429417671fff3
:10118000c1fbe84c90728be7b3518963ab23230218
:10119000841872aa612f3b51a8e53749fbc9ca0cd4
:1011a00018532cfd45e37102000040420f0000403f
:1011b0000000ffffffff0afaffffff000080006250
:1011c000000000ff7f00000500060007000000018e
:1011d0000001000001000102020300020000000003
:1011e000000202010002bf01fb9d4ef3bc36d87421
:1011f000f5394138684c19000000093d0000e4ff52
:10120000fffffb349b5f80000080001000000000a7
:10121000000002000000ff000000000008050100bf
:1012200000000000010805000000000000070300a6
:10123000000080000100008000000000070a040098
:101240000000000007090000000d00000104070075
:1012500000000000020100000202831b891b8f1b9b
:10126000951b9b1ba11bff1a751d511d2f1ec31d16
:10127000c91d8000040580000406060000008000ef
:10128000040280000404800002000b0000008000c3
:101290000600401f0000e80300007517e513b519ac
:1012a0006f14d51d7b1d491c1d1ef91a010000007d
:1012b0008000000040ffffff00ffffffff00000075
:1012c00000c000000012112ca7e00212112cbfe098
:1012d0000212112ceae00212112c37e10212112c39
:1012e0004fe10212112c77e10212112cc7e1021218
:1012f000112cf7e10212112c58e20212112c74e2a7
:101300000212112c90e20212112cb5e20212112ce1
:101310000ee30212112c9de70212112c51e8021269
:10132000112cba940312112cd2940312112c439550
:101330000312112c86950312112cccfa0212112cd7
:1013400060fb0212112cd6fb0212112cecfb0212d4
:10135000112c18fc0212112c2dfc0212112c86fcef
:101360000212112ca7fc0212112c05fd0212112ce5
:101370004afd0212112cbbfd0212112ce6fd0212d5
:10138000112c6afe0212112c99fe0212112cb8fec9
:101390000212112cccfe0212112c11ff0212112c80
:1013a000027b0012112c1e7b0012112c547b0012a8
:1013b000112c627b0012112c937b0012112cc07b2c
:1013c0000012112cc97b0012112c0c7c0012112c64
:1013d0009a7c0012112c077d0012112c587d0012ee
:1013e000112c877d0012112cdb7d0012112cad7e9b
:1013f0000012112cb87e0012112ceb7e0012112c61
:101400001c7f0012112c6d7f0012112caa7f00127c
:10141000112c9aff0112112cbaff0112112ce3ffbb
:101420000112112ce3960312112cf7960312112cc2
:101430004e970312112c90980312112ca7980312a7
:10144000112c5fff0212112c8cff0212112c1df4c3
:101450000112112c8af40112112cd0f40112112c5a
:10146000f9f40112112c05f50112112c28f50112c5
:10147000112c6cf50112112cb3f50112112c11f67f
:101480000112112c64f70112112c47f80112112cd2
:10149000eef80112112c14f90112112c58f9011255
:1014a000112cf3f90112112c08fa0112112c46fa31
:1014b0000112112c66fa0112112cc8fa0112112c1a
:1014c000dbfa0112112cebfa0112112cdafb0112da
:1014d000112cf8fc0112112c6afd0112112c1efeb8
:1014e0000112112ca0ba0112112c46bc0112112cb0
:1014f000cabc0112112c1ebe0112112c8dbe01128c
:10150000112cc7be0112112c91bf0112112c12c057
:101510000112112cfac00112112c0bc20112112c54
:10152000fdc20112112c37c40112112c90c40112fa
:10153000112cf8c40112112c75c50112112c16c6fc
:101540000112112c88c60112112c21c70112112c75
:1015500087c70112112cf5c70112112c4ac80112bc
:10156000112cd2c80112112c88c90112112c3ecaab
:101570000112112c00cc0112112c2ece0112112cb3
:1015800075ce0112112ce8ce0112112c58cf011288
:10159000112ca6cf0112112c50d10112112cf0d117
:1015a0000112112c7cd20112112cbdd20112112c6e
:1015b0003ed40112112c9fd40112112ca9d5011275
:1015c000112c9fd60112112cced70112112c01d94a
:1015d0000112112ce4da0112112c9add0112112ce6
:1015e0004bde0112112cedde0112112cdcdf011299
:1015f000112c4fe00112112cbbe40112112c3de71c
:101600000112112c12e80112112c64ea0112112ca2
:1016100084eb0112112cadec0112112cc4ec01125f
:10162000112cdbf30112112c6a830312112ca983f4
:101630000312112cd6830312112c03840312112cd4
:10164000f0840312112cc7850312112ca8930312e6
:10165000112c01940312112c62940312112c00809e
:101660000112112c1e800112112c3b800112112c31
:1016700058800112112c80800112112ca5800112ba
:10168000112ccd810112112c47820112112c5f8483
:101690000112112cc5840112112c50850112112c3c
:1016a00090850112112cc4850112112c068601129d
:1016b000112c74860112112c22870112112c3087f3
:1016c0000112112c43870112112c70880112112c68
:1016d000ac8a0112112c2c8b0112112c608b01127f
:1016e000112ca48c0112112ccd8d0112112ced8d19
:1016f0000112112c148e0112112c508e0112112c7a
:10170000838e0112112c86920112112cae920112bd
:10171000112cfa920112112c81990112112ccd99e0
:101720000112112c0e9a0112112cc09a0112112cc7
:101730008b9b0112112c5a9e0112112cc59f011274
:10174000112c35a00112112ceca20112112c67a34f
:101750000112112caba30112112c10a40112112c97
:1017600068a40112112cf0a40112112c3aa5011247
:10177000112c95a50112112c9fa50112112cd6a692
:101780000112112c8da70112112c13a80112112c7a
:101790006ea80112112c2ea90112112ccfa9011231
:1017a000112c59ab0112112c7aab0112112cb4add2
:1017b0000112112ce6ae0112112c8aaf0112112c6c
:1017c000feaf0112112cd7b00112112cdab10112a7
:1017d000112cd2b20112112ce3b20112112cedb274
:1017e0000112112ceab40112112c45b50112112c71
:1017f00074b50112112cdcb50112112c0bb60112bb
:10180000112c9eb60112112c32b70112112c93b774
:101810000112112c09b80112112c3fb80112112c20
:1018200074b80112112c93b80112112cecb80112ea
:10183000112c06b90112112c33b90112112c41b926
:101840000112112c6ab90112112cd9b90112112cf3
:1018500033900312112cef900312112c11910312eb
:10186000112c5c910312112c9f910312112c609783
:101870000312112c49a10212112c75a10212112c74
:10188000caa10212112c2aa20212112cb2a2021217
:10189000112c77a30212112c92a40212112c8ca6e7
:1018a0000212112c74aa0212112c83ac0212112cf8
:1018b0007faf0212112cc3af0212112cb7b002126b
:1018c000112cbcb10212112c1cb30212112c91b3b9
:1018d0000212112cb4b30212112cd7b40212112c23
:1018e00011b50212112c00800312112c2c8003124e
:1018f000112c43800312112c47800312112ce1801c
:101900000312112cd1820312112c00800212112c0f
:1019100076800212112c93800212112cc0800212c8
:10192000112cec800212112c20810212112c6781e3
:101930000212112c96810212112cf9810212112c23
:1019400056820212112c24830212112c9e83021241
:10195000112c4f850212112c32860212112cd188c3
:101960000212112c4b8c0212112c8f8c0212112c92
:10197000e88c0212112c9e8d0212112c818f021202
:10198000112c11900212112c52900212112ca890bd
:101990000212112c23910212112c48910212112cc7
:1019a0009b910212112cdc910212112c57930212fe
:1019b000112c7a940212112c8b940212112c07967e
:1019c0000212112c1d960212112c45960212112c96
:1019d000fc960212112c11970212112c439702123d
:1019e000112c49980212112cdb980212112c11991a
:1019f0000212112c59990212112c4d9a0212112c1b
:101a0000a89a0212112c8f9b0212112c029c021216
:101a1000112c469c0212112c5d9d0212112c3da02e
:101a20000212112c6da00212112ccfa00212112c47
:101a300038a10212112cf1910312112cfe91031204
:101a4000112c21920312112c64930312112c719307
:101a50000312112c9f930312112cb0f50212112cba
:101a6000f7f50212112c13f60212112cdef60212f7
:101a7000112c84f80212112ce2f80212112c30fa07
:101a80000212112c99fa0212112c4e960312112ceb
:101a90007c960312112ca6960312112c3a8603127f
:101aa000112cc3860312112cf5860312112c6587a5
:101ab0000312112c07880312112c2f880312112cea
:101ac000c47f0012112cd07f0012112c785000120c
:101ad000112cce500012112c9a510012112cba5315
:101ae0000012112c54550012112c1a560012112cf0
:101af0001e570012112c9c570012112c095800126d
:101b0000112cbf580012112c275b0012112ca75b5f
:101b10000012112c045c0012112ce05c0012112c3c
:101b20008a5d0012112c875e0012112c7e5f00125c
:101b3000112c4a640012112c76660012112c416996
:101b40000012112cc56b0012112ca56e0012112c65
:101b50008e700012112c1c730012112c7177001260
:101b6000112ca4780012112c8a790012112c007a01
:101b70000012112c547a0012112c777a0012112cb9
:101b8000558e0312112cd38e0312112ce98e0312e1
:101b9000112cff8e0312112c158f0312112c368f6e
:101ba0000312112c4c8f0312112c628f0312112c73
:101bb000f9cf0212112c89d00212112c0cd1021271
:101bc000112c32d10212112cfed10212112cb4d2de
:101bd0000212112cf4d20212112c7ad30212112cff
:101be000ecd30212112c4ed40212112ccbd40212bf
:101bf000112cded40212112cf2d40212112c27d592
:101c00000212112c59d50212112c8bd50212112c53
:101c1000d1d50212112c11d60212112c65d6021246
:101c2000112c74d60212112c7dd60212112c10d751
:101c30000212112c47d80212112ce6c60212112ce6
:101c4000f5c60212112ce6c70212112c00c80212ae
:101c5000112ca7c90212112c5cca0212112cc5ca80
:101c60000212112ceaca0212112c0dcb0212112cf5
:101c700065cb0212112cb0cb0212112cfacb02123e
:101c8000112c43cc0212112ca2cc0212112cc8cc64
:101c90000212112ce8cc0212112c0acd0212112cc6
:101ca00034cd0212112c8ccd0212112ce5cd021272
:101cb000112c32ce0212112c7ace0212112c9ace95
:101cc0000212112cadce0212112cbdce0212112c1b
:101cd000cfce0212112cddce0212112cebce02124d
:101ce000112cfbce0212112c0bcf0212112c74cf2f
:101cf0000212112ca0cf0212112caacf0212112c09
:101d0000b3cf0212112cc5cf0212112c728c031208
:101d1000112c9f8c0312112c42b50212112c66b5a6
:101d20000212112c7bb50212112c19b60212112cc1
:101d300078b60212112cd1b60212112ce6b602129c
:101d4000112c31b70212112cc8c30212112c4ac433
:101d50000212112ce6c50212112c6ec60212112cb1
:101d6000858a0312112ce78a0312112c0b8b0312a4
:101d7000112c5a8b0312112cae8b0312112c4f8c89
:101d80000312112c688c0312112c69d80212112c29
:101d900086d80212112c96d90212112cf5d90212f2
:101da000112c9dda0212112c1cdc0212112cc8dc41
:101db0000212112c16dd0212112c7bdd0212112ce5
:101dc000e1dd0212112c33de0212112cbfde0212f1
:101dd000112c3adf0212112c13e00212112c6de8c3
:101de0000212112cc1ea0212112cf5ea0212112c76
:101df0006beb0212112cb5eb0212112ce7eb021265
:101e0000112c12ec0212112c41ec0212112c75ec67
:101e10000212112c9dec0212112cdaec0212112c80
:101e2000fcec0212112cb1ed0212112c05ee021283
:101e3000112c20ee0212112c80880312112ce7883d
:101e40000312112c47890312112c49890312112cfa
:101e50005f890312112c038a0312112cb49503120b
:101e6000112cd2950312112ce1ef0212112cc3f0a8
:101e70000212112caaf10212112cb2f10212112c31
:101e8000baf10212112c13f20212112cb5f2021245
:101e9000112cb2f30212112ce5f30212112cc2f430
:101ea0000212112c20f50212112ca3100012112c79
:101eb000d0970312112c3d980312112cbf9803e008
:101ec00066701008a3e066700a08a3e06670040854
:101ed000a3e06622c3e7960809e7960809e7960893
:101ee00009e796a2d265d03322c3e09608a3e09614
:101ef00008a3e09608a3e096a2d265d03322c021c1
:101f0000c3e096f52108a3e096422108a3e096429b
:101f10002108a3e0964221a2d265d033e5217001c9
:101f2000d3d02122c3e7960809e7960809e7960867
:101f300009e79622c3e09608a3e09608a3e0960876
:101f4000a3e09622c021c3e096f52108a3e09642c3
:101f50002108a3e096422108a3e09645217001d311
:101f6000d02122bb0102e722c0925392fec082c060
:101f70008389828a83bb0003e08002e493d083d00c
:101f800082d09222bb0015c0925392fec082c083c1
:101f90008a838982f0d083d082d09222bb0101f75c
:101fa00022080808eac0e0ebc0e086f0e7a4fa18cf
:101fb0000986f0e7a42afa180986f0e7a42afa1895
:101fc0000986f0e7a42afa1986f0e7a4fbe5f02acf
:101fd000fa190886f0e7a42bfbe5f03afa1908860f
:101fe000f0e7a42bfbe5f03afa18180986f0e7a40d
:101ff000c5f02bfbe43afa1908e7c5f0c6a426f6ab
:10200000e5f03bfbe43afa1886f0e7a4f6e5f008c1
:1020100026f6e43b08f6e43a08f6d0e0fbd0e0fa16
:1020200022e4cfc0e0e4cec0e0e4cdc0e0e4ccc028
:10203000e075f020e626f608e633f608e633f60803
:10204000e633f6181818ec33fced33fdee33feeff3
:1020500033ffc3ec9709ed9709ee9709ef9719192c
:1020600019400fffec97fc09ed97fd09ee97fe195b
:102070001906d5f0bfecf709edf709eef709eff710
:10208000191919d0e0fcd0e0fdd0e0fed0e0ff222d
:102090001220f81818181220211220e719191922f5
:1020a0001220e7191919080808e618181820e7e09f
:1020b0001220211220f818181822090909e7191905
:1020c0001920e7dc080808e618181820e7030220a2
:1020d000211220f81818181220211220f8181818a8
:1020e0001220e719191922e4c397f709e497f709b1
:1020f000e497f709e497f722e4c396f608e496f626
:1021000008e496f608e496f6226017080808c6a2c6
:10211000e713c618c613c618c613c618c613c6d505
:10212000e0e9226016080808c6c313c618c613c61d
:1021300018c613c618c613c6d5e0ea2270090808e7
:1021400008226016181818c6c333c608c633c60856
:10215000c633c608c633c6d5e0ea22e627f6080924
:10216000e637f60809e637f60809e637f622e026ec
:10217000f608a3e036f608a3e036f608a3e036f644
:1021800022e026f008a3e036f008a3e036f008a32a
:10219000e036f022c3e697f60809e697f60809e666
:1021a00097f60809e697f622c3e0c696f608a3e07c
:1021b000c696f608a3e0c696f608a3e0c696f622f1
:1021c000e056f608a3e056f608a3e056f608a3e0aa
:1021d00056f622e647f60809e647f60809e647f606
:1021e0000809e647f622e046f608a3e046f608a30b
:1021f000e046f608a3e046f622e066f608a3e066ad
:10220000f608a3e066f608a3e066f622e0f608a367
:10221000e0f608a3e0f608a3e0f622e6f008a3e65d
:10222000f008a3e6f008a3e6f022e0faa3e0fba39f
:10223000e0fca3e0fd22eaf0a3ebf0a3ecf0a3edb9
:10224000f022e0fca3e0fda3e0fea3e0ff22ecf01f
:10225000a3edf0a3eef0a3eff022e0f8a3e0f9a3e2
:10226000e0faa3e0fb22e8f0a3e9f0a3eaf0a3eb95
:10227000f022cac0e0e6f0a308dafad0e0fa22caf7
:10228000c0e0e0a30592f0a30592daf6d0e0ca22fe
:102290005392fefae9fb7921e7f0a309dafae8f0b4
:1022a000a3ebf9f0a3ecf0a3edf0a3eef0a3eff0b5
:1022b000a3e520f0a3e5f0f0a3e592f0a3e584f018
:1022c000a3e585f0a3e581f0a3e531f0a3e532f0c5
:1022d000a3e533f0a3d0e0fad0e0f0a3caf0eac05f
:1022e000e0e0c0e07a007b00225392fecac0e0eb3f
:1022f000c0e07921e0f7a309dafae0f8a3e0f9a356
:10230000e0fca3e0fda3e0fea3e0ffa3e0f520a333
:10231000e0f5f0a3e0c0e0a3e0f584a3e0f585a339
:10232000d0e0f592d0e0fbd0e0fae0f581a3e0f553
:1023300031a3e0f532a3e0f533a3d0e0d0e0e0c074
:10234000e0a3e0c0e0ea4b70027a0122b90010bbc2
:102350000008e88af084f8aaf022e4fbc8fa22eb2d
:1023600070227b10c833c8c933c9335007c39ac31e
:10237000dbf280069a50012adbeac833f4c8c9337d
:10238000f4c9fa2275f008e4c833c8c933c933c99f
:102390009ac99b5004c92ac93bd5f0ecfbc833f459
:1023a000c8e4c9fa22600d08c6a2e713c618c6130e
:1023b000c6d5e0f322600c08c6c313c618c613c600
:1023c000d5e0f422700422600d18c6c333c608c6d7
:1023d00033c6d5e0f41822253210af08f532400c90
:1023e00015338008f53240021533d2af2200c0d039
:1023f000253210af08f532500c05338008f5325005
:10240000020533d2afd0d0222532f58210af08f5c5
:1024100032400c15338008f53240021533d2af85b7
:10242000338322c5822532c582c583353310af0779
:10243000f5338582328007f533858232d2afc5838a
:10244000222532f582e43533f583222532f584e402
:102450003533f585222532f8e43533f9222532fa71
:10246000e43533fb222532fce43533fd22e473539b
:1024700092fe2532c582c0e0e53334ffc583c0e05b
:10248000e532c3958224f810af0885833385823204
:102490008008858333858232d2afcef0a3e520f069
:1024a000a37821e608f0a3defaeff0a3e58124fa91
:1024b000f8e608f0a3e608f0a3e608f0a30808e6ab
:1024c00008f0a3e608f0a315811581d0e0fed0e066
:1024d000f8158115811581e8c0e0eec0e022539225
:1024e000fe2532c582c0e0e53334ffc583c0e0e598
:1024f00032c3958224f910af0885833385823280f8
:1025000008858333858232d2afcef0a3e520f0a3d5
:102510007821e608f0a3defaeff0a3e58124fbf8ca
:10252000e608f0a3e608f0a30808e608f0a3e6082a
:10253000f0a315811581d0e0fed0e0f8158115815a
:10254000e8c0e0eec0e0225392fe853383853282fc
:10255000e0a3fee0a3f5207821e0a3f608dffae08f
:10256000a3ffe0a3c0e0e0a3c0e0e0a3c0e0e0a3dd
:10257000c0e0e0a3c0e010af0885823285833380dd
:1025800008858232858333d2afd083d0825392fec6
:102590000211295392fe853383853282e0a3fee047
:1025a000a3f5207821e0a3f608dffae0a3ffe0a37b
:1025b000c0e0e0a3c0e0e0a3c0e0e0a3c0e010af53
:1025c000088582328583338008858232858333d2c1
:1025d000afd083d0825392fe22c0925392fec0d0dd
:1025e0002532c582c0e0e53334ffc583c0e0e53263
:1025f000c3958224f210af08858333858232800828
:10260000858333858232d2afc8f0a3e9f0a3eaf024
:10261000a3ebf0a37921e709f0a3d8faecf0a3ed3e
:10262000f0a3eef0a3eff0a3d0e0f0a3d0e0f0a38e
:10263000d0e0f0a3e520f0a3e5f0f0a3d0e0f02295
:102640005392fe853383853282e0c0e0a3e0f9a394
:10265000e0faa3e0fba37821e0f608a3dffae0fcb0
:10266000a3e0fda3e0fea3e0ffa3e0c0e0a3e0c081
:10267000e0a3e0f5d0a3e0f520a3e0a3f5f0e0a30c
:10268000c0e010af088583338582328008858333ac
:10269000858232d2afd0e0d082d083f592d0e0f8fc
:1026a000d0e032e584f0a3e585f022e0a3f584e0f4
:1026b000f5852274048006740280027401c0e0f47f
:1026c00004122408d0e0122272227404800a7403d7
:1026d0008006740280027401c0e0f404122408d061
:1026e000e012227f22d083d082e9c0e0e493a3c32a
:1026f00086f0c5f095f0f908e493a386f0c5f0954f
:10270000f0700be493a3c3994005e9048002a3e4ad
:1027100075f002a42582f582e5f03583f583d0e0db
:10272000f9e493a3c0e0e493c0e022ffc0e0c0d08e
:1027300075d008c092c082c083c0f0759800e5a82b
:10274000f8c2af5392fe9004e8e0d2e1f075340095
:10275000e8a2e7e433fee8a2e792af12130dd0f04f
:10276000d083d082d092d0d0d0e032c082c0835308
:1027700092fe9004b0e4f0a3f0a3f0a3f0d083d0d5
:10278000822274f71224de7900121a3390046e123a
:102790002e201239b0eac398f8eb99f99003ff1292
:1027a000353fc3e89ce99d402c9003fd12353f90d6
:1027b0000401e02af8a3e03bf9e8c39cf8e99df99d
:1027c0009003f21239c7a3ecf0a3edf09003ffecf5
:1027d000f0a3ed80239003f2122cc69003ff122e7b
:1027e0002b9003ff1239b09003f41239c79003fb0a
:1027f000e070047402800114f07af07b031239cd8a
:10280000800ff08532828533831226ab7402122347
:10281000ed7f0202259374f71224dee9fe9003fc9b
:10282000e0f8ee600924fe601d14601a8032900307
:10283000f9e0a2e35009e860279003fc148020c26d
:10284000e2f0d2e380199003f9e0a2e2500c7408a0
:1028500068600d9003fce0048005c2e3f0d2e2f072
:102860009003fae070089003f874fff080499060dc
:102870000a122a1f49703d90618fe0c0e09003fc6e
:10288000e0f87408c398f8d0e0b800028004c313dd
:10289000d8fcf52174ff6521700990600ae4f0a36b
:1028a000048010e5212401f8e43400f990600ae87e
:1028b000f0a3e9f012278202281174f71224dee94e
:1028c000fe24fc600624fe602d80109004cae064a3
:1028d00001702312173fe9701d805890041de064b9
:1028e000017013900417e4f0ee700b7b0912321e96
:1028f000fa7900123dad900417e070089004157449
:10290000fff0802f90618fe0ff7900121a338b2245
:10291000a922900419e02af8a3e039f9740f5ffaac
:10292000e82af8e439f990040f1239c77a0d7b04cc
:102930001239cd02281174f71224de74fe12240815
:102940001226a3900467122a1f2412fae439fb907e
:10295000605ce060088a828b83e0d2e1f0e824309a
:10296000fce439fde82432f584e439f58590605ab9
:10297000e0700690605ee060388a828b83e0a2e1be
:10298000401bd2e1f0e82422f582e439122ca8128f
:1029900023c48c828d83e521f0a3e522f0e4059227
:1029a000f0a3f079008532828533835392fe0228aa
:1029b00009e8241ef582e439f5831239a78584825b
:1029c000858583e02ef0a3e03ff08c828d83059215
:1029d000e0fca3e0fdc30592e09ca3e09d50c48809
:1029e000828983a3a3a3a3a3a3a3a3a3858284858e
:1029f00083858a828b83e0a2e1500474088002748c
:102a00003e0592f07b02888289830592a3a3a3a34b
:102a1000a3a3a3a3e0fa7900123dad790180861249
:102a200039b4e82274f31224de74fe12240812264c
:102a3000a31230f9f521e43ff522852182f583e0e8
:102a4000fa7003022c93ee242ef582e43ff58312f4
:102a50002cb2a3a3a3a3a3a38582258583268e825c
:102a60008f83a3a3a3a3a3a3a3a3a3858284858306
:102a700085ee2434123117687003a3e069702b745b
:102a8000026a7003022c2a74016a7003022b197403
:102a90000c6a7003022c93740d6a7003022c9374f9
:102aa000096a6023742205928057ea14606b1470df
:102ab00003022c2a24fa601c14600c146044147065
:102ac00003022c71022c93906008e0a2e6500302ee
:102ad0002c93802eee2439f582e43ff58380138811
:102ae000828983a3a3a3e064037003022c938882ea
:102af0008983122a1f4970e70592e06413700374fa
:102b000016f07b028525828526835392fee0fa79b2
:102b100000123dad7901022c95ee2455123448ee99
:102b2000244cf584e43ff585ea24fffceb34fffdfb
:102b3000ec687002ed696003022bbcee244d122d8f
:102b40004b8e828f83122cc48e828f83a3a3a3a368
:102b5000a882a9830592e025e0fae433fbea240386
:102b600050010b0592f0a3eb122cbc501188828906
:102b700083122d4188828983122cb21239c39004aa
:102b8000b9e4f0a3f0a3f0a37402122cbc4003023a
:102b90002c93906062e4f00592e0f875f0e2a4c82e
:102ba000aaf075f004a42af9e824eaf8e93402f955
:102bb0000592906064e8f0a3e9022c6eea68700266
:102bc000eb696003022c93752309752400782312a6
:102bd00026b7ac84ad85ee241bfae43ffb121eb38e
:102be00074021223ed900498e0a2e05007eefaef91
:102bf000fb123454852182852283e4f0ee2422f5f1
:102c000082e43f122ca81223c4ee2430f582e43f64
:102c1000f583e521f0a3e522f0ee2432f582e43fce
:102c2000f583e4f0a3f07b08805ce8240108500100
:102c300009ee245c123117687003a3e069705475c3
:102c4000230575240078231226b7ee2457fce43fb1
:102c5000fdee2424fae43ffb121eb374021223edae
:102c6000eefaeffb121739852182852283e4f0808a
:102c700022eefaeffb121313852182852283e412e0
:102c80002cbc500f7b07852582852683e0fa7900ce
:102c9000123dad79008532828533831226ab7402f2
:102ca0001223ed7f06022593f583122e57740378c5
:102cb00021221239b48e828f83a3a322f09004982c
:102cc000e0a2e022a3a3e028f0a3e039f02274f808
:102cd0001224de74fe1224081226a3900467123c0c
:102ce0009f122a24e9704a122936e97044e58424a7
:102cf0002ef582e43585f583122d41906008e0c001
:102d0000e0e5842436f582e43585f583d0e0f0e50e
:102d100084241ef582e43585122d4f0592a3a3e08d
:102d200028f0a3e039f0059290046712344e12396e
:102d3000cd8532828533831226ab74021223ed8057
:102d400049e02401f0a3e03400f022f582e43ff5ed
:102d500083122d5522e0f8a3e0f9e828f8e933f9c9
:102d600022123783f582e43ff58312376b1217c9bd
:102d7000ee241ef582e43ff58312310524fcf8e9c8
:102d800034fff98e828f831239c37f010225937439
:102d9000f71224de74fe1224081226a39004d71220
:102da00039bd9004d7122e20ac82ad839004bec8ea
:102db000241ef584e438f5850592e0f8a3e0f9e8ef
:102dc00028f8e933f990049ae0f521a3e0f52212fe
:102dd0002e410592e028f8a3e039f98c828d831208
:102de00039c79004b9122e348c828d83122e2b9009
:102df00004bb122e347a207b4e12234c8821892268
:102e00008c828d83e09521f0a3e09522f09004c0a0
:102e1000122e34e828f8e933f9e81230ea022802e1
:102e2000e0f8a3e0f5838882a3a322c3e098f0a38f
:102e3000e099f0221239b490049a122e57122e41c2
:102e400022e88521f0a4c8aaf08522f0a42afa85f8
:102e500021f0e9a42af922e0f521a3e0f522227469
:102e6000f31224de74fe1224081226a31230f9f5a0
:102e700023e43ff524852382f583e0640c701190f0
:102e80006008e054036009852382852483740df073
:102e9000ee2412f584e43ff5850592e0a2e35008a4
:102ea000c2e3f005920230de8e828f830592a3a3e7
:102eb000858221858322906062e0600e7910121a6b
:102ec000338521828522831239bd122a24e96003c9
:102ed0000230e7122936e960030230e7906008e02b
:102ee000c0e0ee2436f582e43ff583d0e0f0906157
:102ef000d5e0f89061d7e06805926005e0d2e28005
:102f000003e0c2e2f005929004bb12344e9060627e
:102f1000e06016ea24c0faeb3437fb123d829004dd
:102f2000c01231051230ea8012123d6c9004c012ba
:102f30002d51906064e028f0a3e03912311f24ff86
:102f4000f0a3e034fff0ee242b1231179004bdf013
:102f5000ee2420123448ee242ef525e43ff526ee2b
:102f6000245cf584e43ff585ea4b700302301c9045
:102f7000049ce0f8852382852483e0fc702b1231c9
:102f80000a600302301cee243912310d6003023056
:102f90001ce8a2e0500302301cea2401f8e43bf9eb
:102fa00090049ae8f0a3e9805d740d6c706e1231a4
:102fb0000a7069ee243912310d7061e8a2e0405cbc
:102fc0008584828585838525848526850592e0f81c
:102fd000a3e0f90592e0c398f8a3e099f9e824ff8b
:102fe00018e934fff9ea24010a50010bc398eb9960
:102ff00090049a5006eaf0a3eb800b1239c78523a0
:1030000082852483740212311ff8a3e0f99004be74
:103010001239c7eefaeffb122d8f805a90049a7482
:1030200001f0a3e4f0ee241e122d4b8521828522af
:1030300083122cc69004b91239b08521828522836f
:10304000122e2b852382852483e0640c702885252d
:1030500082852683e02402f8a3e03400f90592e09b
:10306000faa3e0fbc3e89ae99b400b852382852401
:103070008374020592f08e828f835392fea3a3a3e2
:10308000a3a3a38582848583859060641239b07a76
:10309000717b0212234c8922e82405f8e43522f9d9
:1030a0008584828585831239c78e828f83a3a3a3eb
:1030b000a312344e858482858583e0f8c3ea98ebb9
:1030c00099a2d265d0335007ea0592f0a3ebf053f2
:1030d00092fe1239ad852582852683122cc6900476
:1030e0006712344e1239cd022c9524eaf8e93402e5
:1030f000f9906064e8f0a3e922900467e0fea3e0a1
:10310000ffee240a22122d55e822ee243212311746
:10311000fca3e0fdec4d22f582e43ff583e022f0d4
:10312000852182852283e02274f51224de74fe124a
:1031300024081226a38031c2e5123219c0e090049f
:10314000c8e01231fed0e0f09004c8e004f0a3e043
:1031500004f0a3e004f09004cce0700c7401f07b68
:10316000007a007900123dad90605ae0f521906040
:1031700002e0a2e050047800800590605de0f890e5
:1031800004c9e0fae52128f8e43400f9e86a70019e
:10319000e960589004c8e0f52374012523547ff5b5
:1031a00021e5231231fee0f808089004c8e028f079
:1031b00074802521f582e43460f5830592900467dc
:1031c000e0f8a3e0c82408f584e438f585e0a2e738
:1031d0000592e04003023137d2e5f012321024dbd1
:1031e000123219fa1232104a02314785328285337f
:1031f000831226ab74021223ed7f04022593123250
:103200000222547ff8748028f582e43460f583222a
:103210009004c8e0123202e022f012321e22900422
:1032200067e0f8a3e0c82408f582e438f583e022db
:1032300074f51224de74fe1224081226a3892105d7
:1032400092900467e0f582a3e0f58385828485830c
:1032500085a3a3a3a3a3a3a3a3e0a2e7404690044e
:10326000cbe0f8906054e0c398f5229004cbe025c1
:1032700022f0ae82af838011ee2439fae43ffb12d4
:103280001649ea4b600312186585222374ff252333
:10329000f5220470e3e521a2e640097900eefaef99
:1032a000fb1217c98532828533835392fe0231f1b6
:1032b000c0e074f11225d98535c675a70075a10047
:1032c0007950121a517f01022640c0d075d018756e
:1032d000bf00d0d032c0e0c0d075d018c092c0823c
:1032e000c083c0f08535c6e591fe759b00f4f5916d
:1032f0005392fe906002e0a2e050047800800278d1
:10330000087900e844015e6003123128eea2e5501e
:1033100004f9123230eea2e75029e5a8f8c2af90c6
:1033200004e8e0d2e0f0753400e8a2e7e433f9e81d
:10333000a2e792afe594a2e24009759403e594a256
:10334000e250faeea2e64003023415906061e0f923
:103350009004c9e4f09004cbf090046712344e8ad4
:10336000828b83a3a3a3a3a3a3a3a3e0241060122f
:1033700024fc600924fc700f12281680661228bafb
:103380008061121679805c900497e06005146014e7
:103390008023906060e06480601be0c0e012343203
:1033a000d0e08010906058e0f890605ce028f8125f
:1033b0003432e028f0906060e064806016e0c0e0a5
:1033c000900467e0f8a3e0c82413f582e438f5839d
:1033d000d0e0f0900498e0a2e05005122e5f800348
:1033e000122cce906059e0f89004b0e028f0906084
:1033f00058e0f89004b1e028f090605a1234299017
:10340000605e12342990605ce0f89004b3e028f02c
:1034100012165b8004a2e75003123af5d0f0d08375
:10342000d082d092d0d0d0e032e0f89004b2e02840
:10343000f022ea242cf582e43bf583e0fa74722a48
:10344000f582e43404f58322f582e43ff583e0fa63
:10345000a3e0fb22c082c0835392fe9004bbe4f041
:10346000a3f09004b9f0a3f012167f9004c0eaf024
:10347000a3eb02277c74f71224de74fe12240812d8
:1034800026a312353c1239adec2429f582e43df532
:1034900083ec242bfae43dfb8a848b857401684914
:1034a0007012e0f80592e028fac39425402974dbf5
:1034b0002afa8023e0f521e88521f0a4f8aaf08516
:1034c00021f0e9a42af90592e0fae82af8e439f9aa
:1034d0007a257b0012234ceaf0ea131313541ff8e9
:1034e000ec28f8e43df9e82424f582e439f5830575
:1034f00092e0c0e074075af8d0e0b800028004c33c
:1035000013d8fca2e040288005e8cac39afaec244c
:10351000e5f582e43df583e0f8eac39850ebec2a48
:10352000f8e43df9e824c0f582e439f583e0faeceb
:10353000242cf582e43df583ea022802900467e03a
:10354000fca3e0fd2274f61224de74fe122408129d
:1035500026a390041ee09060026004740e80027442
:103560000ff0900418e0906001f090097412225a54
:103570009061951222661217d590041de0f5217412
:103580000165219004167040e05402f97a1f7b0413
:1035900012169d900416e0a2e050097aa47b0475ef
:1035a000214080077a9e7b04752100a2e150047eb1
:1035b0008080027e0075230678231226bb7c1f7d47
:1035c00004e5214e44018068e0a2e050087aa47b23
:1035d00004784080067a9e7b04780005929004442b
:1035e0001226d67c257d0474782521f582e43409e1
:1035f000f5830592e048f91216a374011223ed90a9
:10360000041de0f86005740268702e900416e0a2b4
:10361000e050087aa47b04784080067a9e7b047888
:103620000005929004641226d67c457d04e844048b
:10363000f91216a374011223ed900416e0a2e0e43f
:1036400033f912169775910090041ee09061826024
:103650000474c8800274c0f08532828533831226d8
:10366000ab74021223ed7f03022593c082c0835303
:1036700092fe906002740ff09003fbe004f064038c
:103680007002e4f0e02425906000f09009741222aa
:103690005a9061951222669003f9e05420f91216af
:1036a000971217d59003f9e0a2e15004d2f08002fe
:1036b000c2f0a2f0e43390600cf09003f9e0a2e1d4
:1036c000503c75d90da2e55004784080027800e89e
:1036d0004403f5d9e0a2e550067aa47b0480047a7d
:1036e0009e7b047906121661740675d9001470fa6f
:1036f000e5e170fc75e1959003ef7403800490039d
:10370000efe4f075910090618274c102277c74f837
:103710001224de74fe1224081226a31237c61217d2
:10372000d51237bc12225a9061951222661237d5f3
:10373000123475123783f584e43ff58585848285dc
:10374000858312376b1217c9123aebe0a2e25018c8
:103750000592e0f8a3e0f58388820592a3a3e02414
:1037600002f89061d5e028f0022d311239b4ee2430
:1037700037f582e43ff583e8f0a3e9f07900eefa4b
:10378000effb22ee242c123117906000f0759100af
:103790009004d6e0906182f0ee24392274f812246d
:1037a000de1237c61217d51237bc12225a90619515
:1037b0001222661237d5123475022d61ee2414f5eb
:1037c00082e43ff58322900467e0fea3e0ff90606f
:1037d00002740ff022ee2436123117906008f0eeda
:1037e0002418123117906005f0ee24191231179049
:1037f0006006f0ee241a123117906007f02274f878
:103800001224de1237c61217d51237bc12225a9074
:1038100061951222661237d5022d6174f11224def1
:1038200074fe1224081226a37521007522007c6ef6
:103830007d04801f888289831239a78c828d83ee54
:10384000f0a3eff088828983e521f0a3e522f088d8
:103850002189228c828d831239a7ee4f70378c829a
:103860008d831239bd8a828b83e4f0a3f0aa21ab49
:10387000228532828533831226ab74021223ed7fb8
:1038800008022593e5232527f8e5243528f98a82bf
:103890008b83122cc4eef8eff988828983a3a38a64
:1038a000848b850592a3a3e0f523a3e0f52405927c
:1038b000e0c39523f523a3e09524f5248a828b8326
:1038c000a3a3a3a3a3a3e0f525a3e0f526c3e523c3
:1038d0009525e5249526a2d265d033403e8a828b79
:1038e000831239c78a828b83a3a3a3a3858284858d
:1038f00083851239b0c3e52398e52499a2d265d017
:1039000033500d858482858583e523f0a3e524f07b
:103910008c828d83eaf0a3eb02386c88828983a3c2
:10392000a3a3a3a3a3e0f527a3e0f528c3e4952769
:10393000f525e49528f526c3e5259523e526952468
:10394000a2d265d03350288a828b83a3a3a3a3a3da
:10395000a3a3a3e0a2e7500302388488828983a34b
:10396000a3a3a3a3a3a3a3e0a2e750030238348830
:10397000828983a3a3a3a3858284858385c3e495d9
:1039800023fce49524fd1239a7c3ec9eed9fa2d23f
:1039900065d033500b858482858583ecf0a3edf0f0
:1039a000e8fce9fd023853e0fea3e0ff2290049a10
:1039b0001239b422e0f8a3e0f9229003f2eaf0a36e
:1039c000ebf022a3a3a3a3e8f0a3e9f02274f7127b
:1039d00024de74fe1224081226a3ea4b6031a2af43
:1039e000e433fec2af12381b8a828b838016aa8210
:1039f000ab838582848583850592e0f582a3e0f51b
:103a00008312381be582458370e4eea2e092af0298
:103a1000280374f31224de74fe1224081226a3ea8b
:103a2000f8ebf9e8497003023ad4a2afe433f52386
:103a3000c2af90046e123ccd6015a2e7501188828f
:103a40008983a3a3a3a3a3a3a3a3e0a2e7407f1218
:103a5000353cecfaedfb123cba123ae28a828b83d7
:103a6000a3a3e0c39521f525a3e09522f526c3ee97
:103a70009525ef9526a2d265d03350528584828554
:103a80008583a3a3a3a3e0123ae20592a3a3e0f5e2
:103a900025a3e0f526e521c39525f521e522952608
:103aa000f522c3ee9521ef9522a2d265d033501ea8
:103ab000ecfeedff123aeb0592e0d2e4f088828949
:103ac000831239bd90046e1239c779018008e5234d
:103ad000a2e092af79008532828533835392fe0251
:103ae0002c9b2406fea3e03400ff22ee2412f58274
:103af000e43ff5832274f51224de74fe12240812ca
:103b000026a37900121a338a238b247977121a514b
:103b10009061b1e4f0e070f87401f0e0640170f8d5
:103b200090046e1239b09004671239c7e8497012d8
:103b3000123ce0e594a2e24003023c997594000235
:103b40003c998882898312344e90046e1239bd12da
:103b50003cba2521faa3e03522fbea24fdfeeb3432
:103b6000ffff88828983a3a3a3a3a3a3a3a3e054f5
:103b7000f8601b9003efe0f8c3ee98feef9400ffaf
:103b8000c3e5219ee5229f4005e521123cb29060ed
:103b9000607480f0e521c39523e5229524f9e5239f
:103ba0002401fae43524fb900467123ccd24106014
:103bb0004724fc600624fc60078058123545807c51
:103bc00090046e123c9fe584458560270592a3a36f
:103bd000a3a3a3a3a3a3e0a2e74018123ca75013fa
:103be0008a218b22c3ea9eeb9f4003123cb10592cf
:103bf0001239ba12366b8044123ca750118a218bbd
:103c000022c3ea9eeb9f4003123cb11239ba12174d
:103c1000db8029900498e0a2e0500512370e801c4a
:103c2000a985e5842412f582e439f583e0a2e45005
:103c300008c2e4f01237fe800312379caa21ab229f
:103c40007930121a45eefaeffb7940121a45795491
:103c5000121a517900121a338a238b24e521c39555
:103c600023f8e5229524f9c3e89401123ca8500cee
:103c70001217ede5e170fc75e121801d900368e00d
:103c8000a2e04012aa21ab22121a3f9004b51222e0
:103c900036123ce080031217ed1219010231ebe0fd
:103ca000f584a3e0f58522c3e99400a2d265d03360
:103cb00022ea2401fee43522ff2288828983a3a31d
:103cc000122e5788828983a3a3a3a3e022123c9fcc
:103cd000858482858583a3a3a3a3a3a3a3a3e022b2
:103ce000e5a8f8c2af9004e8e0c2e0f0753400e85f
:103cf000a2e7a2e792af2200853487c2af22c0e0dc
:103d0000c0d075d018c092c082c083c0f074fc12bd
:103d100023d75392fe9004e9e0601c1216919003a1
:103d200068e054117008e5c654384487f5c690041d
:103d3000e9e4f0c2c78020c2c7aa32ab331217e74a
:103d4000e9640170129004e97401f08532828533d0
:103d50008312222a1218f575340074041223edd050
:103d6000f0d083d082d092d0d0d0e03275c300742e
:103d700020c39afa744e9bfbeaf5a2ebf5a353928b
:103d8000fe22c02175c301e5a2f521e5a375c3009c
:103d9000f9e5212420f8e9344ef9e8c39af8e99bc3
:103da000f9e8f5a2e9f5a3d0215392fe2274f512a9
:103db00024dee9feeaff8b21753400a2afe433f57f
:103dc00022c2af90058ce0f52474012524540ff530
:103dd0002390058be0652370057900121ab1e52464
:103de00075f003a4f8a9f0741928f8740539f9e8f6
:103df0002442f582e439f583eef0e82443f582e4c9
:103e000039f583eff0e82444f582e439f583e521c0
:103e1000f0e52390058cf0e522a2e092af7f04024a
:103e20002593c082c08374fc1223d7e5a8f8c2afe3
:103e3000e5958532828533835392fef0e596c0e0a6
:103e40007401122441d0e0f0e597c0e0740212241e
:103e500041d0e0f0e8a2e7a2e792af740312244158
:103e6000e4f085328285338312222a74041223ed12
:103e7000d083d08222c0e0c0d075d018c092c0825a
:103e8000c083c0f0121c37123e2290062112223647
:103e9000e58955ab900625f0e580900628f0900660
:103ea00025e0f4f5899062d0e0f8a2e15027900671
:103eb00025e0a2e5501f53abdf9062d0e0a2e0e422
:103ec0003390062bf0900625e0c2e5f07b307a00b7
:103ed0007906123dad900625e0600e7b007a0079f0
:103ee00006123dad7900121c43c2c5d0f0d083d07c
:103ef00082d092d0d0d0e032c0e0c0d075d008c01f
:103f000092c082c083c0f0121c37123e229006215c
:103f1000122236e58a558df8900626f0e590900637
:103f200029f0e8f4f58ae8600e7b017a0079061240
:103f30003dad7901121c43c2eb80b0c0e074f012b9
:103f400025d99061a9e06017c2afe589f8e5abf922
:103f500075ab00e4f090624bf0888989abd2af90ea
:103f60000630e0640f7012e5c7f8900369e0f5c70a
:103f700090ff1ce0f4f5ae88c7e5bbf8e5baf52183
:103f8000e8fb900630e025e0f8e433f9743128f5d9
:103f900082740639f583e521f0a3ebf0900630e05a
:103fa0002410fb7a007906123dade5a8f8c2af9067
:103fb00004e8e0c2e2f0753400e8a2e7a2e792afbd
:103fc0007f02022640c0e0c0d075d018c092c0f079
:103fd000e5d1f875d100c2c0a2e350097b037a0095
:103fe0007904123dadd0f0023ef1c0e0c0d075d0f2
:103ff00010c092c021c022c082c083c0f05392fe84
:104000009007bb124105602a900776e0700c74019e
:10401000f07b007a007904123dadee9007bbf0e52d
:10402000c1c0e074bd2521f582e43407f583d0e0fa
:10403000800be5c4a2e650069007757401f00240bb
:10404000f4c0e0c0d075d010c092c021c022c082a0
:10405000c083c0f0c2e95392fe900778e0fa90075f
:1040600077e09a543ff8602974792af582e434079e
:10407000f583e0f974012a543f900778f089c190e4
:1040800007b9e06870197b027a007904123dad80af
:104090000ee5a8f8c2af9004e8e0c2e312417380d5
:1040a00053c0e0c0d075d010c092c021c022c082e1
:1040b000c083c0f05392fe900845124105602990dc
:1040c0000800e0700b7401f07b00fa7904123dad3a
:1040d000ee900845f0e5f9c0e074472521f582e44b
:1040e0003408f583d0e0800be5fba2e6500690078c
:1040f000ff7401f0d0f0d083d082d022d021d092b2
:10410000d0d0d0e032e0f52174012521543ffea348
:10411000e06e22c0e0c0d075d010c092c021c02295
:10412000c082c083c0f0c2ea5392fe900802e0fa57
:10413000900801e09a543ff8602974032af582e45c
:104140003408f583e0f974012a543f900802f0899d
:10415000f9900843e06870197b027a017904123df6
:10416000ad800ee5a8f8c2af9004e8e0c2e41241c9
:10417000738081f0753400e8a2e7e433f9e8a2e740
:1041800092af22c0e074f01225d9906206e0f89058
:10419000089de048f0906202e0543ff5217522004e
:1041a000740478211223c490089de04521f0a3e017
:1041b0004522f0906204e0543ef521752200740916
:1041c00078211223c490089ee04522f090089de0db
:1041d00054046007e054fbf0121de790089ee05481
:1041e000016013e054fef09008ade060097b037ab3
:1041f000007907123dad121e1790089ee054206012
:104200000de054dff07b027a007907123dad758b2b
:1042100000c2e87f02022640033f0000030004289a
:104220000d98089007900194011b0195111b08f04f
:104230000939821f0ea4fecd82210622fb381818f0
:10424000162118f0ef3818f2ed3828f2eb3868f044
:1042500003392a1fe73f08f00428ba3868f0393cd0
:1042600008f1053c88f1173ca8f10e3ce09f2c1f9b
:104270000128104a291fd63f15d0033827d0093806
:10428000009004289f3f0128154101980128014a08
:1042900025d01f38041f831f0ea4fecd042205382d
:1042a0001421202807a0083f0628681527d0e939df
:1042b000202807d0f238832178f10238042188f1d0
:1042c000083d0628a14001f004288438042807a0ee
:1042d00005284d1528f1163c68f1143d77cf1240a2
:1042e000599202d80f3912d00739699222d0043975
:1042f000799242d004380528ef151e3fc09f04284c
:104300006c3f08f1233c88f1203d094028f1103d25
:104310004540f7c759f2083d9303131183e1b9f003
:104320000f3c23e00d3f09d8ea38f9c30b3f68f191
:10433000033d59f2f23c09d8f9390528bd15052885
:10434000f01501900128214a051f48f00c3c08f1a6
:104350000a3868f1033c98f106390c960528f915de
:104360000228843f47a00c960528f315531f052803
:10437000e31507288ced0528ec1501280195711b24
:1043800001280ce40528e515511f88f10b3808f1c8
:10439000073868f109390128214201f00b3947d06b
:1043a00009383521063f28f1033838f10339351f24
:1043b000341f04280ce047d0033903280ce80528f3
:1043c000c815571f28f00638561f811f021f38f0e6
:1043d000063930215b9005283b15fd3f88f1033df0
:1043e0000428f7150528811547d0133808f10f392f
:1043f0002c470cf00c38c403b4125c110c3e04f0d2
:104400000a38c103802801a0411b063f3021043f28
:1044100007284ced4c1b5b9047d0173827d003285a
:10442000e8390ea4fecd02220d39002208381021f1
:10443000002914e00328dd3c4c1bf13f05289e15a4
:10444000ee3f46181221033f0528021588f1303946
:10445000052811150128fb41302100291be00a3de8
:104460000428f61505280715f6c35192166a3b90e5
:104470006b080428ed150428fe150bf0fb3917d046
:1044800004382d1f0128c43f0328214701f00839b3
:104490000328314701f00439a2958090033fc2956b
:1044a00000920328b615201b54900128b33f08f151
:1044b0000539052111900128214a38f103390021dd
:1044c000023f302110216a030428c2156b033141d9
:1044d000224128f1093d02f00239f29101f00b3935
:1044e000ff28f191083f02f00239529201f003399e
:1044f000ff28f193f7cb1b06023907a4b20c073d46
:1045000047d003286e3824900328753f1690b608cc
:104510000428b115a6030428ae153be0f7ce28f118
:10452000703c012807a0f090a00668f1323d14907d
:1045300030f0053938f103285e38073f50f0032882
:104540005a3958f10328573838f104380328ab1585
:10455000033f0328891503287515012807d003395f
:1045600007a1563f424130f00c3907a112d0033861
:1045700007d84e3887a0c14041d04a38f7ce483fcf
:1045800038f1033822d0443807d8423907a1403fd8
:1045900078f1123847d02d3800f0033860f0063932
:1045a000c14011d0073887a0113f10f0033820f028
:1045b000ab3977cf0b3f00f0033810f0a5394141fc
:1045c00081d0043903285015093f03286c1568f180
:1045d0000539414141d0023907b810f006390328a6
:1045e0003115012807d0033807d8123907a1103f29
:1045f00040f00228fc390328141507d8f838083f82
:10460000a10383403112310511d0023907a14bf0cb
:10461000063c04281d1504282e15fa3f04281815f9
:104620001bf0fd3d38f103380328a115f7cd032811
:10463000214701f005390328314701f0033807a26b
:10464000f7ce224082d00a380603042814150693b8
:1046500076062611960404280e15710341120028cf
:1046600071c021070438e7cf4198043f17d00439bf
:1046700051980728214817d00538f2952028009036
:104680001d3f07d20438c2950092183f07d1043865
:10469000d2950094133f07d40438e29500980e3f5a
:1046a000809028f10a3d3190a10631f0063903a42b
:1046b000b2950228aa1500a1a2950228a615201bd2
:1046c00028f1633d08f10a39012807d00739072886
:1046d00051411128c14a012807a017d20539e3cf5b
:1046e0008ad0023813a007d20539b3cf4ad0023896
:1046f00043a083d01e3931031112310521d007396f
:10470000319907282148002915e0133f52950228c6
:104710007c15454003d10d39429502287615281f96
:1047200021990728214803d20438629502286d1583
:1047300073cf834808f1093977cf17d0063907d2ec
:1047400003390ad1023887a0349007d2073807d836
:1047500003383090543f07a8023ff7c718f15a3981
:1047600027d04c39314011d0493987d0073917d07b
:10477000453907d203390ad1413805f04b39414058
:1047800001f0483850903b3f68f1153878f13938de
:10479000149017d03d3907d23d3987d00338349073
:1047a000393f07d1373911900128214a4090032819
:1047b0006e15253f47d01c38249007d30c39119033
:1047c0000128214a87d008385144002911e0043ad1
:1047d000514c023877cf17d01b3987d0033834902b
:1047e000193f07d31739c14021d01438073f17d0dc
:1047f0000f3907d303383090023f009044900a3fae
:10480000249017d0053907d305393490033fa09f72
:1048100044900221c190511b8121342124f0083998
:1048200027d004390c9cfd2bae3f10904490b7cf9d
:1048300034f00e3953210328e195711b541f0f28c2
:10484000cc9506282141f1c081111c09143f01902b
:10485000511b0728f19f711b802114f00128863815
:1048600054f0fd2b0a380128ad3f541f032864156e
:104870001028cced03286d1576217821501f0128d2
:10488000a29a217001b2218001b221802ce3032879
:10489000601574210128ace408f1073c88f1033d60
:1048a0000228971503282115011f0128349d03288c
:1048b0005015201f002168f0093d069058f003397b
:1048c0000728364102289315fa3f0728504078f10f
:1048d0000439331f321f0421500000dc01287c38ca
:1048e00028f1103d8340f7cb31031112310521d05f
:1048f000033903d1033900d8103807a41b901a904c
:10490000163f00d80128683998f107394b70012803
:10491000e2412b0800288e3f102807a04b701bf0a7
:10492000fc2bed3c4a70224128f1303d02f0023967
:10493000f29112e0b20cfc2be23c419031061111d5
:10494000ff2be29f3204520022111a042a04324043
:10495000002862c018f1033927d00d3922f0093937
:1049600007280141b109002921e0093a0aa1073fbe
:1049700042f00339face033f62f0f93818f12539d5
:1049800077cf0ad1223887a0203f02f00239529215
:1049900012e0b20cfc2bb33c68f1123d38f1153833
:1049a00087d013390128314201f00f38402807a081
:1049b0000728914231c0c1a00728914a063f02282a
:1049c0000190710621121a04ff2bf29fb2084be0ee
:1049d000a60302280c1526030228091568f1293cb4
:1049e000fbf0273c6290467002280115d23704285c
:1049f000609662904670062d0128f915c23778f14d
:104a00001839d04000d81538dbf0133c829046703e
:104a10000128ed15d237764400d40338060e023f44
:104a2000060d41700128e315417086120128df153b
:104a30003290b20c053d46700128d915fb3f08f1b4
:104a4000063941721128c14a012807a0ef28f7cf83
:104a500028f11e3d83403090a0063103111231052c
:104a600021d003398295043f30f004397295002833
:104a7000cc1553c843d0023823a007d4023803a171
:104a800030f0023903a2834892950028be150690a3
:104a90000bf005380128ab15591ffb3f0ea4fecdc6
:104aa0000122043902286a15fa3f551f1121031ffc
:104ab000249008f10f390ad1033987d024383140c6
:104ac00011d0213905f02139414001f01e385090b4
:104ad0001b3f48f1073828f1033858f1063987d0d1
:104ae000143877cf1490113f78f1053911900128cf
:104af000214a093f98f10939829500288a15281f13
:104b00005490033f009044900ea4fecd032204393c
:104b100002283415fa3f13212c1801210321741f98
:104b2000f1900000f1370190511b0728f19f711b94
:104b3000802132210728914231c00728914abf289d
:104b4000f7cf28f1063c88f1043d92955e15281fa9
:104b500044f0383814f00a3854f0fb2b8e38012812
:104b60000ce40128f615fc2b023f0128901500905b
:104b700027d0283902d8083838f124393290012852
:104b80009215e237193f19e089f2043c38f11a39dd
:104b9000599238f1033901288615124091030029f2
:104ba00051e2120e12d0f038012886150128b915ed
:104bb0001240012891153199072821482c18fe2b05
:104bc000553f0128104a0028a915fb2b2b3ff09fc9
:104bd000043fd09f023fb09f0028d0152c1ff23f0a
:104be00028f1053c68f1033d1490053f2090023ff9
:104bf0001090449041980728214838f1fe2b0a383c
:104c00000028b515fe2b063f217011e0218002001f
:104c10000128214107282148217811e0218802003c
:104c2000f7c7761571033112a10501d4023907a81f
:104c30000428649631150238f7c70428c4f6fb3cf3
:104c40000200fe28f7cf641551417111a10501d86a
:104c50000339012807a064911f150338fe28f7cff8
:104c6000c4f1fb3c0200f7c753155141022807a0cd
:104c70000ad40339fd28f7cf5111a10501d4023917
:104c800007a8c4910428659607150238f7c756315e
:104c900024f2fb3c02000028db150028ec15412d16
:104ca000160c0200f7c73415d032d332234268f114
:104cb00009394141904041d0043850000306023f79
:104cc00003033142022807a00ad404395100fd2809
:104cd000f7cf13064492042865960028b9150028da
:104ce000ca155631ff28e19f4070060c02381306a2
:104cf0008ea0810064e044f5f83c0029f4e2a4f2bf
:104d0000ed3c03f0023807a8d32fd02f02009bf010
:104d1000023c020007a12de0020098f1093810289a
:104d200007d0033908f1043831990728214808f1e0
:104d30000c39012807d00938072851411128c042f1
:104d4000010c0338072850491190082807d005386e
:104d50000628b148f728f7cf042807d005380628d9
:104d6000a148fb28f7cf3021291f0200311fff285f
:104d7000f19f411b301f312102000221012103213b
:104d8000532309380628d14001d112384198072809
:104d900021480b3f54230c385021f1910000f1378a
:104da000741ff1900000f13768f0023c2b1f019056
:104db000511b81210728f19f711b802107289142f7
:104dc00031c00728914abf28f7cf32213421020091
:104dd000082807d007390628b14001f00438082810
:104de00007a0020004280d98fe2bf43f402807d0ae
:104df0000d390ea4fecd012204390028bf15fa3f5b
:104e0000661b112100291be002000728a64a0ea4f8
:104e1000fecd012204390028b115fa3f01283142a4
:104e2000b10941e0053a08384bf00c38ea3d072853
:104e3000a142611be73f0728914271cf0728914aa1
:104e4000f73f0728914281a20728914ada3f0ea432
:104e5000fecd0222043900289115fa3f461812218e
:104e600000291be01bf00639581f0628e0400128e6
:104e7000004a020017d00a393122063817a041989b
:104e800007282148033f0728a6480200124038f1ae
:104e9000093802d807399103002941e2120e120d98
:104ea0001248020047a07b280c9c10215215ff2bb2
:104eb0005e15b7cf020059f203396391083f69f2da
:104ec0000339e392043f79f2033943960200042840
:104ed0000d98fa2b143f02d407389103002901e200
:104ee000117006286148020088f10a3c012831410e
:104ef0000728814ab1460328314fa1460f3f0728b2
:104f0000894a28f1063d31440328314f5140053f7d
:104f1000552851950328314f81110328214f020054
:104f2000e3f3033cf190033f23e051920628614aea
:104f30000628434802007b21772141900000f13789
:104f4000702175217a218cee0415521f801f0200fa
:104f50004c1b001f47d0033827d009390ea4fecdc3
:104f6000002203390b15f73f1021020004280d9889
:104f700038f1fe2b2738fe2b3c3fd23202180119a4
:104f8000210601d41a381218162162f003392a1f9b
:104f90002d3f12f2153822f22838fe2bef1568f05b
:104fa000063c61900128114afe2bb81530212803d8
:104fb00004280d98f92b373f01d1143814212028eb
:104fc00007d00d3878f1123904231038714401f0fc
:104fd00002398144002911e0714c083f202807a0c4
:104fe000053f01d20538152127a0d22f020011d08c
:104ff0000638102104280d98fd2bf33ff2ce520005
:10500000121bf43f0306030202030302060203031a
:10501000010502020100010101010001000003027b
:105020000000050002070700020301010100000360
:105030000202010f00080305050207040608060620
:105040000503040401030602020101090101020132
:105050000102010000000302020105050201010333
:10506000050001000203010000000201010401002b
:10507000000304040203020474f512246feafeeb39
:10508000ff8923e9c39411400375231085232175fb
:10509000220078211226b7121eb374021223ed7477
:1050a0001065236026852382aa827410c39af52195
:1050b00095e0f52278211226b77c007d00ee2afad1
:1050c000e43ffb121eb974021223ed02560774f07e
:1050d00012246f74fe1224081226a38a848b85057d
:1050e00092a38a828b830592e0600624026060802e
:1050f00065900655e4f00592e0f5250592a3f0755c
:105100002200240250020522e4c522f521e4f52301
:10511000f524f526f527f528900a17782512216e33
:10512000900a1b78251221c07408782512213c783a
:105130002179251221d3900a1f78211221e69006a9
:1051400051782112221bea2402f521e43b801e053e
:1051500092e0700280fe5392fe90065574fff0a319
:10516000e412640912789d7405f0e4f521f52278c3
:10517000211226b790065612666d79061269111231
:10518000246d74021223ed8532828533831226ab9f
:1051900074021223ed7f0802254774e812246f740d
:1051a000fe1224081226a374fb1223d78a848b854f
:1051b000752d00752e0085848285858378211222c5
:1051c0000ce5c7c0e07404122441d0e0f0900369fc
:1051d000e0f5c7858482858583a3a3a3a385822f59
:1051e000858330e0fa8584828585838a29e4f52adf
:1051f000f52bf52c782912216e90f7e81253b1f5b2
:1052000028740b782512213c78297925121f245007
:10521000030253610592a3a3a3a3a3059290f7e40d
:105220001253b1740b782512213c78217925122173
:105230005beafee5215403fc70030252cc740312b6
:10524000244174fff0740212244174fff0740112bf
:1052500024411253a68c82aa827404125b0e50055c
:105260007404c39cfe8e2575260078251226b7ace3
:1052700084ad857402122441e5822afae43583fb69
:10528000121eb374021223ed7904ac32ad338521c2
:105290002585222685232785242874027825122136
:1052a00023aa25ab261214458e25e5842ef584e429
:1052b0003585f585e4f526f527f528782179251239
:1052c000215b852f82853083e0c39efeeec394046c
:1052d0004031eef9ac84ad858521258522268523d4
:1052e0002785242874027825122123aa25ab2612ab
:1052f00014458e25e52554fcf8e58428f584e4352d
:1053000085f58574035efc605e740312244174ffae
:10531000f0740212244174fff074011224411253fc
:10532000a68c2575260078251226b7ac84ad857429
:105330000212245d121eb374021223edac32ad339f
:105340008e25e4f527f5287821792512215b740252
:105350007821122123aa21ab227404f9121445806a
:1053600006752d80752e017404122441e0f5c79056
:105370000655e52df0a3e52e1266667407127085ba
:105380001226b712690712246d74021223ed7405f8
:105390001223ed8532828533831226ab74021223e9
:1053a000ed7f1002254774fff0853282853383f04c
:1053b00022e0f525e4f526f5272274e812246f741f
:1053c000fe1224081226a374c01223d78a828b836c
:1053d0008582848583850592a3a3a3a3e0fee5c708
:1053e000ff900369e0f5c790f7e8e0f525e4f526be
:1053f000f527f528740b782512213ceec394414023
:10540000027e400592782912220c78257929121ff4
:105410002440030254f5852921852a22852b2385e2
:105420002c248e2de4f52ef52ff5307821792d12d0
:10543000215b78217925121f245005e529f404fe0b
:1054400090f7e4e0f521e4f522f523f524740b78d8
:105450002112213c7829792112215b852921852a75
:1054600022852b23852c24740f7821122123e521fa
:10547000f5238523c7ac29e52a4480fd8e828582e9
:1054800025752600ec2ef521e43df522c3e5259592
:1054900021e49522500c78251226b7740212245d5f
:1054a0008049e525c39521f525e49522f526782543
:1054b0001226b7740212245d121eb374021223ed79
:1054c00074012523f5c778211226b77c007d80c39f
:1054d000e49521fae49522fb7402122441e5822e20
:1054e000f8e43583f9e82afae93bfb121eb37402ab
:1054f0001223ed80027e008fc7ee900655f0f52551
:10550000f582ac827d002401125cc8900a237825c4
:1055100012216e7408782512213c782179251221f8
:10552000d3900a2778211221e69006517821122281
:105530001ba832a9338821892278211226b77a51f3
:105540007b06790512691112246d74021223ed7421
:105550004002539074f512246f74fe122408122630
:10556000a3eafeebff7523008e828f83a3e0fb741a
:10557000ff6b601e7c007d007a0479008e828f8331
:10558000e025e01263e312691612246de9700375d9
:1055900023018e828f83a3a3e0fb74ff6b60347cb6
:1055a000007d007a0379008e828f83e025e0fee49f
:1055b00033ff746b2ef584740a3ff58505921269ea
:1055c0001612246de97004d2f08002c2f0a2f0e459
:1055d000334223e523a2e0500678807901800478e5
:1055e00000790012560c740e1270851226b71269db
:1055f0000712246d74021223ed85328285338312e3
:1056000026ab74021223ed7f03022547900655e86e
:10561000f0a3e912796fe4f0a32274ec12246f7402
:10562000fe1224081226a374c01223d78a848b8505
:10563000858482858583a3a3a3a3e0f8c394405007
:105640000488218003752140e5c7f5228584828581
:105650008583782512220c740f7825122123e525e5
:10566000f5c7852182ae828e237524007823122609
:10567000b7858482858583782512220cac25e526a2
:105680004480fd740212245d121eb374021223edd5
:105690008522c785848285858312225a90065512f9
:1056a0002266ee900659f024051268eae0f529e436
:1056b000f52af52bf52c900a2b782912216e900ae9
:1056c0001b78291221c07408782912213c78257989
:1056d000291221d3900a2f78251221e690065178bd
:1056e0002512221ba832a933882389247823122665
:1056f000b7eefc7d007a517b0679091269111224fc
:105700006d74021223ed74401223ed8532828533cd
:10571000831226ab74021223ed7f0c02254774f628
:1057200012246f74fe1224081226a374f91223d7d0
:105730001216b57f007e00ac32ad33740112245dc9
:10574000eef9121a21e9601c740112245d8532827f
:10575000853383e0f91216a9e960089006551264b2
:1057600010800e0f0eeec3940840cc900655e4f066
:10577000a3f0efa312772512706b740712708512d5
:1057800026b77c007d007a517b06790712691112d9
:10579000246d74021223ed7407027aec74ec122467
:1057a0006f74fe1224081226a3e9fe8c258d269024
:1057b0000655eaf0a3ebf0eea3f0f529f582ac82f2
:1057c0007d002403125cd0f52af52bf52c900a33ca
:1057d000782912216e7408782912213c78217929c0
:1057e0001221d3900a3778211221e69006517821b0
:1057f00012221b78251226b77a517b067907126987
:105800001112246d740202570874f612246f74fe8c
:105810001224081226a374fc1223d7ea146006147b
:10582000603b0258ba90061de0240260051460092e
:10583000800e9006557484800c900655748a8005fd
:1058400090065574851270721226b71269071224d9
:105850006d74021223ed90061de4f0805d7e00aab7
:1058600032ab33eef9121a1be96048ee900655127e
:10587000641f900656f07401122441e05401900612
:1058800057f07403122441e090065812705274804d
:10589000f0a37404126e29141270851226b77c00ce
:1058a0007d007a517b06790812691112246d740209
:1058b0001223ed0eeec3940840a57404027aec7432
:1058c000f212246f74fe1224081226a38922ebfe22
:1058d000ea600d24fb6029147003025ab5025ad104
:1058e00090061de0fa7440125b0e4003025a15e068
:1058f000f87440c398f524025a1790061d74fef000
:10590000ee7003025ad190061de0a2e75027eec3c5
:10591000944140047f408002eeff7cdd7d05effb7b
:10592000125ae612691612246de9cec39efe700368
:10593000025ad180d9c39404504ce070160592905d
:105940000a3b1226ca7b017a007908121a6974048c
:105950001223ed90061de0f87404c398125b1950f1
:105960000ae0f87404c398f52180028e21125b03cb
:10597000ab21125ae612691612246de9cec39efebf
:1059800090061de029f0e0c394045003025900e0a2
:10599000640470189005dde060030258faa3e0c3c8
:1059a000943d400890061d74ff0258ff90061de0cc
:1059b000f89005dee02404c398f8c39e50048824c0
:1059c00080028e24e8601e90061d125b03ab241239
:1059d0005ae612691612246de9f8e52468700690fb
:1059e000061de029f0e524cec39efe90061de0fad8
:1059f0009005dee0790024045001096a4960030241
:105a0000590090061de0f97add7b05121b6b9006ac
:105a10001de40258ff8e24e524c39e5003025ab1b0
:105a200085242575260078251226b774dd2afae428
:105a30003405fb121eb374021223ed90061de025ff
:105a400024f0e0c394045003025ad19005dee0fc38
:105a500090061de0faec2404f8e43400f9ea98e436
:105a600099406e74042cf524f97add7b05121b6bca
:105a7000a82490061de0c398f07c0090061de0f875
:105a8000ecc39850bd8c82a882852425e82525fa90
:105a9000e43400fb74dd2af58274053bf583e0c035
:105aa000e074dd28f582e43405f583d0e0f00c8065
:105ab000ca7900801ee5c7f525900369e0f5c79017
:105ac000ff25e0f974ff6960057a00121c738525d3
:105ad000c779018532828533831226ab7402122383
:105ae000ed7f060225477a027900e52225e0f525bb
:105af000e433f526746b2525f584740a3526f5857f
:105b0000059222e0f874dd28fce43405fd22c39af6
:105b1000125b19a2d265d03322f895e0f98e25c325
:105b2000e89525e994002274f612246f74fe12247d
:105b3000081226a38a828b837c007d00e0f8c39440
:105b40000340057c800d8054858284858385059281
:105b5000a3a3e870150592a3e0f58f0592e0600518
:105b600053f7df803743f7208032740168701505e2
:105b700092a3e0f5f60592e0600553f7bf801d4360
:105b8000f7408018e06004780080027880e5f754e0
:105b900060fa0592a3e0541f484af5f7125f5d12c0
:105ba000775b7405027ad474f612246f74fe1224a3
:105bb000081226a38a828b837a007b00e060081497
:105bc000600f146016801e125bef558048f58080d0
:105bd00017125bef559048f590800d125bef55a0c2
:105be00048f5a080037a800b12775414027ad4858a
:105bf00082848583850592a3e0f90592a3a3e059e9
:105c0000f8e9f42274f012246f74fe1224081226ac
:105c1000a374e01223d78a848b858584828585834b
:105c2000a3a3e0f8c394205004e8fe80027e207510
:105c30002100752200eefcaa32ab330592e0f91286
:105c40001ca9e9f5250592a3e0600a121c97e9f565
:105c500021640160095392fe900620e060067521e0
:105c600085752201900655e521f0a3e522f0e52592
:105c7000a3f0f582ac827d002403125cc8f5289065
:105c80000a33782512216e7408782512213c782178
:105c900079251221d3900a3f78211221e6900651ee
:105ca000782112221ba832a9338821892278211257
:105cb00026b77a517b06790712691112246d740296
:105cc0001223ed7420025184125cd0f526f52722b0
:105cd000e43400f522e4c522f521e4f523f524227d
:105ce00074f512246f74fe1224081226a38a218be5
:105cf000228a828b83a3a3a3a3a3ac82ad838a82cf
:105d00008b83a3a3a3a38a848b850592a3a3a3a8b3
:105d100084a9858a848b85a3a3aa84ab85852184e5
:105d2000852285a3ae84af85852184852285e07098
:105d30001475864275c402125d5ef5c58c828d8332
:105d4000e0f5c2801275f84275fb02125d5ef5fc4b
:105d50008c828d83e0f5fa127738040255e80592bb
:105d6000e0541ff52188828983e0c43354e0f88a27
:105d7000828b83e0c4333354c0f98e828f83e0a2d8
:105d8000e0e4331313494845212274f012246f7460
:105d9000fe1224081226a38a848b85858482858539
:105da00083a3aa82ab83e0c39441401f900655743d
:105db00082f0a37401125e7ea3e4127052127ac9bb
:105dc0007409f0e4f521f522025e6e7c00800c8df2
:105dd000f9a2f840fce5f90592f00c8a828b83e089
:105de000f8ecc398502f8c82a882e58428f582e4d1
:105df0003585f583a3a3e0fd749d28f8e43405f907
:105e0000888289830592e070c68dc1e586a2e04054
:105e1000fae5c180c2900655e4f0a3125e7e8a8244
:105e20008b83e0f525900658f0752200240450027b
:105e30000522e4c522f521e4f523f524f526f5270e
:105e4000f528900a43782512216e740878251221ce
:105e50003c782179251221d3900a4778211221e636
:105e6000900651782112221b75219d7522057821fb
:105e70001226b790065812666d790802517cf0051b
:105e800092e00592a3f02274f612246f74fe12249d
:105e9000081226a38a828b837c007d0085828485fc
:105ea00083850592a3a3a3a884a98585828485837d
:105eb00085a30592e014600a24fe604914606b0219
:105ec0005f4f0592e0f521c394054003025f4f1236
:105ed0005f6fc0e074a02521f582e43462f583d0c1
:105ee000e0f08882898312693b0592e025e0f8e4be
:105ef00033f974a628f582746239f583ea0592f0c5
:105f0000a3ebf0804d0592e0f521c39402504012be
:105f10005f68700b8acc88828983e0f5cd80338af4
:105f2000ce88828983e0f5cf80280592e0f521c3f1
:105f30009402501b125f68700b8aec88828983e0a0
:105f4000f5ed800e8aee88828983e0f5ef80037c90
:105f5000800d125f5d12775b740d027ad45392fe4e
:105f6000900655ecf0a3ed22125f6ffae5212205b1
:105f700092a3a3e0540733333354f844042274f05b
:105f800012246f74fe1224081226a374a51223d7bc
:105f90008a218b22e9fec3ea9415eb9400400302a8
:105fa00063de741b2af58274501272dc50030263a4
:105fb000de8c828d83a3a3a3a3aa82ab8378211254
:105fc00026e5000014de63f15f016022606e60aac6
:105fd00060e06034616f617561c161006225624a91
:105fe00062556200630663206360638f63ae63c0c3
:105ff000638a828b83e0f9121ab17901745b0251d2
:10600000841263f8041270851226b77c007d007a32
:10601000517b06790412691112246d74021223ed6a
:1060200080d879067cea7dff741512245d12141560
:1060300075210675220078211226b774171224657f
:106040007a557b06121eb374021223ed900651e4ba
:10605000f0a374061264367402f0e4f5217821127c
:1060600026b77c007d007a517b06790a80a78a8258
:106070008b838582848583850592a3a3e0c0e00598
:1060800092e0f584a3e0f585d0e00592f005921248
:10609000640312643674031270851226b77c007d87
:1060a000007a517b0679060260158a828b83e0f8bc
:1060b000a3e0f988848985900655e8f0a3e9f00506
